{
  "contractName": "Auction",
  "abi": [
    {
      "inputs": [
        {
          "internalType": "uint256",
          "name": "_biddingTime",
          "type": "uint256"
        },
        {
          "internalType": "address payable",
          "name": "_beneficiary",
          "type": "address"
        }
      ],
      "payable": false,
      "stateMutability": "nonpayable",
      "type": "constructor"
    },
    {
      "anonymous": false,
      "inputs": [
        {
          "indexed": false,
          "internalType": "address",
          "name": "winner",
          "type": "address"
        },
        {
          "indexed": false,
          "internalType": "uint256",
          "name": "amount",
          "type": "uint256"
        }
      ],
      "name": "AuctionEnded",
      "type": "event"
    },
    {
      "anonymous": false,
      "inputs": [
        {
          "indexed": false,
          "internalType": "address",
          "name": "bidder",
          "type": "address"
        },
        {
          "indexed": false,
          "internalType": "uint256",
          "name": "amount",
          "type": "uint256"
        }
      ],
      "name": "HighestBidIncreased",
      "type": "event"
    },
    {
      "constant": true,
      "inputs": [],
      "name": "auctionEndTime",
      "outputs": [
        {
          "internalType": "uint256",
          "name": "",
          "type": "uint256"
        }
      ],
      "payable": false,
      "stateMutability": "view",
      "type": "function"
    },
    {
      "constant": true,
      "inputs": [],
      "name": "beneficiary",
      "outputs": [
        {
          "internalType": "address payable",
          "name": "",
          "type": "address"
        }
      ],
      "payable": false,
      "stateMutability": "view",
      "type": "function"
    },
    {
      "constant": true,
      "inputs": [],
      "name": "highestBid",
      "outputs": [
        {
          "internalType": "uint256",
          "name": "",
          "type": "uint256"
        }
      ],
      "payable": false,
      "stateMutability": "view",
      "type": "function"
    },
    {
      "constant": true,
      "inputs": [],
      "name": "highestBidder",
      "outputs": [
        {
          "internalType": "address payable",
          "name": "",
          "type": "address"
        }
      ],
      "payable": false,
      "stateMutability": "view",
      "type": "function"
    },
    {
      "constant": false,
      "inputs": [],
      "name": "bid",
      "outputs": [],
      "payable": true,
      "stateMutability": "payable",
      "type": "function"
    },
    {
      "constant": false,
      "inputs": [],
      "name": "auctionEnd",
      "outputs": [],
      "payable": false,
      "stateMutability": "nonpayable",
      "type": "function"
    }
  ],
  "bytecode": "0x608060405234801561001057600080fd5b506040516106703803806106708339818101604052604081101561003357600080fd5b810190808051906020019092919080519060200190929190505050806000806101000a81548173ffffffffffffffffffffffffffffffffffffffff021916908373ffffffffffffffffffffffffffffffffffffffff16021790555081420160018190555050506105c8806100a86000396000f3fe6080604052600436106100555760003560e01c80631998aeef1461005a5780632a24f46c1461006457806338af3eed1461007b5780634b449cba146100d257806391f90157146100fd578063d57bde7914610154575b600080fd5b61006261017f565b005b34801561007057600080fd5b50610079610325565b005b34801561008757600080fd5b50610090610519565b604051808273ffffffffffffffffffffffffffffffffffffffff1673ffffffffffffffffffffffffffffffffffffffff16815260200191505060405180910390f35b3480156100de57600080fd5b506100e761053e565b6040518082815260200191505060405180910390f35b34801561010957600080fd5b50610112610544565b604051808273ffffffffffffffffffffffffffffffffffffffff1673ffffffffffffffffffffffffffffffffffffffff16815260200191505060405180910390f35b34801561016057600080fd5b5061016961056a565b6040518082815260200191505060405180910390f35b6001544211156101f7576040517f08c379a00000000000000000000000000000000000000000000000000000000081526004018080602001828103825260168152602001807f41756374696f6e20616c726561647920656e6465642e0000000000000000000081525060200191505060405180910390fd5b670de0b6b3a7640000341461020b57600080fd5b60006003541461027057600260019054906101000a900473ffffffffffffffffffffffffffffffffffffffff1673ffffffffffffffffffffffffffffffffffffffff166108fc6003549081150290604051600060405180830381858888f19350505050505b33600260016101000a81548173ffffffffffffffffffffffffffffffffffffffff021916908373ffffffffffffffffffffffffffffffffffffffff160217905550346003819055507ff4757a49b326036464bec6fe419a4ae38c8a02ce3e68bf0809674f6aab8ad3003334604051808373ffffffffffffffffffffffffffffffffffffffff1673ffffffffffffffffffffffffffffffffffffffff1681526020018281526020019250505060405180910390a1565b60015442101561039d576040517f08c379a00000000000000000000000000000000000000000000000000000000081526004018080602001828103825260168152602001807f41756374696f6e206e6f742079657420656e6465642e0000000000000000000081525060200191505060405180910390fd5b600260009054906101000a900460ff1615610403576040517f08c379a00000000000000000000000000000000000000000000000000000000081526004018080602001828103825260238152602001806105716023913960400191505060405180910390fd5b6001600260006101000a81548160ff0219169083151502179055507fdaec4582d5d9595688c8c98545fdd1c696d41c6aeaeb636737e84ed2f5c00eda600260019054906101000a900473ffffffffffffffffffffffffffffffffffffffff16600354604051808373ffffffffffffffffffffffffffffffffffffffff1673ffffffffffffffffffffffffffffffffffffffff1681526020018281526020019250505060405180910390a16000809054906101000a900473ffffffffffffffffffffffffffffffffffffffff1673ffffffffffffffffffffffffffffffffffffffff166108fc6003549081150290604051600060405180830381858888f19350505050158015610516573d6000803e3d6000fd5b50565b6000809054906101000a900473ffffffffffffffffffffffffffffffffffffffff1681565b60015481565b600260019054906101000a900473ffffffffffffffffffffffffffffffffffffffff1681565b6003548156fe61756374696f6e456e642068617320616c7265616479206265656e2063616c6c65642ea265627a7a72315820b5ef1acb3c12307a7310f80611e5fe9b86c2949bc44e815d990a0bad2a142bdb64736f6c63430005100032",
  "source": "pragma solidity 0.5.16;\n\ncontract Auction {\n    address payable public beneficiary;\n    uint public auctionEndTime;\n    bool ended;\n\n    address payable public highestBidder;\n    uint public highestBid;\n\n    event HighestBidIncreased(address bidder, uint amount);\n    event AuctionEnded(address winner, uint amount);\n\n    constructor(\n        uint _biddingTime,\n        address payable _beneficiary\n    ) public {\n        beneficiary = _beneficiary;\n        auctionEndTime = now + _biddingTime;\n    }\n\n\t\n    function bid() public payable {\n\trequire(\n            now <= auctionEndTime,\n           \"Auction already ended.\"\n        );\n        \n        require(\n            msg.value == 1 ether\n        );\n\n        if (highestBid != 0) {\n            highestBidder.send(highestBid);\n\t}\n        highestBidder = msg.sender;\n        highestBid = msg.value;\n        emit HighestBidIncreased(msg.sender, msg.value);\n    }\n    \n    function auctionEnd() public {\n        require(now >= auctionEndTime, \"Auction not yet ended.\");\n        require(!ended, \"auctionEnd has already been called.\");\n\n        ended = true;\n        emit AuctionEnded(highestBidder, highestBid);\n\n        beneficiary.transfer(highestBid);\n    }\n}\n",
  "sourcePath": "/home/gaoyunyi/Desktop/dapp/contracts/Auction.sol",
  "compiler": {
    "name": "solc",
    "version": "0.5.16+commit.9c3226ce.Emscripten.clang"
  },
  "schemaVersion": "3.1.0",
  "updatedAt": "2020-04-27T20:19:19.216Z",
  "networkType": "ethereum",
  "devdoc": {
    "methods": {}
  },
  "userdoc": {
    "methods": {}
  }
}